:030000000208EA09
:0C08EA00787FE4F6D8FD7581200208AF8D
:1008AF007FFF438901758CF8758A30D2AFD2A9D2F8
:1008BF008C300105C20112080012088E7FFF80F1F3
:03000B000208CF19
:1008CF00C0E0C0D0758CF8758A300509E509B40A07
:0B08DF0005750900D201D0D0D0E03236
:1008000075B0F0E5B054F0F50C64F06004050B80B1
:1008100003E4F50BE50B6403705DF50BD200E50C0A
:100820002450601124E0601224F0601324707012D0
:10083000750801800D75080280087508038003752E
:10084000080475B00FE5B0540FF50C24F9602224AC
:10085000FC601624FE600A14701DE50814F50A8079
:1008600016E5082403F50A800EE5082407F50A803A
:1008700006E508240BF50A75B00FE5B0540FF50C2A
:0D088000300008B40F05C200AF0A227FFF50
:01088D002248
:10088E00EF14600F047019E5A0541F4480F5A00505
:10089E0080800AE5A0541F4480F5A0158053A01F48
:0108AE002227
:00000001FF
