:030000000208F5FE
:0C08F500787FE4F6D8FD7581200208DF52
:1008C100D3EF9400EE940040147D787C00ED1D7010
:0D08D100011CED4C70F7EF1F70E61E80E378
:0108DE0022F7
:1008000075B0F0E5B054F0F50C64F06004050B80B1
:1008100003E4F50BE50B6403705DF50BD200E50C0A
:100820002450601124E0601224F0601324707012D0
:10083000750801800D75080280087508038003752E
:10084000080475B00FE5B0540FF50C24F9602224AC
:10085000FC601624FE600A14701DE50814F50A8079
:1008600016E5082403F50A800EE5082407F50A803A
:1008700006E508240BF50A75B00FE5B0540FF50C2A
:0D088000300008B40F05C200AF0A227FFF50
:01088D002248
:0A090100C2A5C2A6C2A700D2A72219
:1008DF00C2A7C2A6C2A5120800EF04F509FF1208AD
:0608EF008EE4F50980F023
:02088E00A907B8
:100890007580FFE4FBFAE9FFC3EB9FEA9400502068
:1008A000E4F5801209017FC8FE1208C17580FF12AD
:1008B00009017FC87E001208C10BBB00010A80D667
:0108C0002215
:00000001FF
