:04018F007FBFDFEF60
:040158007F057E00A1
:10015C00E4FDE4FCECC39FEE6480F87480985003DB
:07016C000C80F10DBDDCEB7E
:010173002269
:0F017400C2A5C2A6D2A70000C2A5C2A6C2A722DA
:1000F90078097C007D007BFF7A01798F7E007F047F
:100109001200D3C2A5C2A6C2A7D2B3D2B2D2B1D26B
:10011900B020B00C12015820B00685098012017474
:1001290020B10C12015820B106850A8012017420F1
:10013900B20C12015820B206850B8012017420B34B
:0F014900D012015820B3CA850C8012017480C2F5
:0300000002018377
:0C018300787FE4F6D8FD75810C0200F9CD
:10000300E709F608DFFA8046E709F208DFFA803EDF
:1000130088828C83E709F0A3DFFA8032E309F608CC
:10002300DFFA8078E309F208DFFA807088828C8334
:10003300E309F0A3DFFA806489828A83E0A3F608E8
:10004300DFFA805889828A83E0A3F208DFFA804CC2
:1000530080D280FA80C680D4806980F28033801099
:1000630080A680EA809A80A880DA80E280CA803302
:1000730089828A83ECFAE493A3C8C582C8CCC5837A
:10008300CCF0A3C8C582C8CCC583CCDFE9DEE7804A
:100093000D89828A83E493A3F608DFF9ECFAA9F0C9
:1000A300EDFB2289828A83ECFAE0A3C8C582C8CC1F
:1000B300C583CCF0A3C8C582C8CCC583CCDFEADE38
:1000C300E880DB89828A83E493A3F208DFF980CC9A
:1000D30088F0EF60010E4E60C388F0ED2402B40493
:1000E3000050B9F582EB2402B4040050AF2323453A
:0600F3008223900053730C
:00000001FF
