:0300000002000EED
:0C000E00787FE4F6D8FD758120020055D3
:04022F00D2A07F05D5
:0802330000AE071FEE70F92276
:0F021200D2A112022FC2A17F05120233C2A02275
:0C023B00C2A112022FD2A17F05020233E3
:02012200AD0727
:10012400C2AFE4FCC2A07F05120233ED30E704D273
:10013400A18002C2A17F05120233D2A0ED25E0FD09
:0D0144007F051202330CBC08DBD2AFC2A055
:01015100228B
:0301D600120122F1
:1001D90012022FA2A1E433FDC2A07F05120233AFA0
:0101E9000510
:0101EA0022F2
:10018200C2AFE4FC12022FED25E0FD30A1034305CE
:1001920001C2A07F051202330CBC08E8D2AFAF0542
:0101A200223A
:1001BE00C2A0EF24FF92A17F0512023312022FC2BA
:0801CE00A0D2A17F050202335B
:10020000AD071FED600BE4FEEEC3947050F20E805C
:01021000F7F6
:0102110022CA
:1001EB001202127F901201D67F031201D612023B2C
:0501FB007F0A02020072
:1001A3001202127F911201221201D9120182AD07AC
:0A01B3007F011201BE12023BAF05EE
:0101BD00221F
:0B024700C0F9A4B0999282F88090FFEB
:0D02210008080A0A0A0A0A0000000110007D
:1000E70053907F438901758CF8758A30D2AFD2A9B6
:1000F700D28C1201EB3000FDC2001201A3EF75F0A4
:100107006484F50DEF75F06484E5F075F00A84F505
:0B0117000EEF75F00A8485F00F80DA0F
:03000B0002009A56
:10009A00C0E0C0F0C083C082C0D075D000C000C02C
:1000AA0001C002C003C004C005C006C007758CF8B1
:1000BA00758A300511E511B43205751100D20012A6
:1000CA000152D007D006D005D004D003D002D00107
:0D00DA00D000D0D0D082D083D0F0D0E03262
:1001520090E00074FFF0AF107401A807088002C39A
:1001620033D8FC90C000F074082510F8E6900247DE
:100172009390E000F00510E510B40803E4F51022B6
:10001A000200E7E493A3F8E493A34003F68001F215
:10002A0008DFF48029E493A3F85407240CC8C333E7
:10003A00C4540F4420C8834004F456800146F6DFB6
:10004A00E4800B0102040810204080900221E47E23
:10005A00019360BCA3FF543F30E509541FFEE493AB
:10006A00A360010ECF54C025E060A840B8E493A372
:10007A00FAE493A3F8E493A3C8C582C8CAC583CA9D
:10008A00F0A3C8C582C8CAC583CADFE9DEE780BE55
:01022E0000CF
:00000001FF
