:0300000002000EED
:0C000E00787FE4F6D8FD758120020055D3
:0B021000C0F9A4B0999282F88090FF22
:0F01F10008080A0A0A0A0A0A0000011000C100E1
:10016600438901758CF8758A30D2AFD2A9D28C300A
:100176000007C2001201318F12E51275F00A84F5EC
:0C0186000EE51275F00A8485F00F80E38E
:03000B0002009A56
:10009A00C0E0C0F0C083C082C0D075D000C000C02C
:1000AA0001C002C003C004C005C006C007758CF8B1
:1000BA00758A301200E70511E511B464057511005F
:1000CA00D200D007D006D005D004D003D002D00188
:0D00DA00D000D0D0D082D083D0F0D0E03262
:1000E700E5A0541F44E0F5A07580FF53A01FE5A0CD
:1000F700541F44C0F5A0AF107401A807088002C3BD
:1001070033D8FCF58053A01FE5A0541F44E0F5A0A9
:1001170074082510F8E690021093F58053A01F0588
:0A01270010E510B40803E4F51022FF
:040201007F057E00F7
:0B020500EF1FAC0670011E4C70F622CB
:0201B900AD0790
:1001BB00E4FBC294ED139294120201D294EDC3139B
:0C01CB00FD0BBB08ED7F057E0002020565
:1001D700E4FBC294EDC313FDD2943094034305802E
:0901E7001202010BBB08EBAF058D
:0101F00022EC
:10019200C201D2947F0C7E00120205C2947F507E6F
:1001A20000120205D2947F0A7E00120205A29492E6
:0601B20001120201A2018E
:0101B8002224
:100131001201927FCC1201B97F441201B97FC87EAE
:10014100001202051201927FCC1201B97FBE120189
:10015100B91201D7AA071201D7EFC454F0FFEAC4BC
:04016100540F4207EE
:010165002277
:10001A00020166E493A3F8E493A34003F68001F295
:10002A0008DFF48029E493A3F85407240CC8C333E7
:10003A00C4540F4420C8834004F456800146F6DFB6
:10004A00E4800B01020408102040809001F1E47E54
:10005A00019360BCA3FF543F30E509541FFEE493AB
:10006A00A360010ECF54C025E060A840B8E493A372
:10007A00FAE493A3F8E493A3C8C582C8CAC583CA9D
:10008A00F0A3C8C582C8CAC583CADFE9DEE780BE55
:0102000000FD
:00000001FF
