:0300000002088E65
:0C088E00787FE4F6D8FD7581200208D5C3
:10099C00C0F9A4B0999282F880908883C6A1868E03
:0909AC000102040810204080FF44
:0309E000010B0008
:10097E00D3EF9400EE940040147D787C00ED1D7052
:0D098E00011CED4C70F7EF1F70E61E80E3BA
:01099B002239
:1008000075B0F0E5B054F0F50C64F06004050A80B2
:1008100003E4F50AE50A6403705DF50AD200E50C0D
:100820002450601124E0601224F0601324707012D0
:10083000750801800D75080280087508038003752E
:10084000080475B00FE5B0540FF50C24F9602224AC
:10085000FC601624FE600A14701DE50814F509807A
:1008600016E5082403F509800EE5082407F509803C
:1008700006E508240BF50975B00FE5B0540FF50C2B
:0D088000300008B40F05C200AF09227FFF51
:01088D002248
:0909C60043A0E0000053A01F2231
:0909CF0043A0C0000053A01F2248
:0809D80043A0800053A01F2280
:1009B500438901758CF8758A30D2AFD2A9D28C8063
:0109C500FE33
:03000B0002091ACD
:10091A00C0E0C0F0C083C082C0D075D000C000C0A3
:10092A0001C002C003C004C005C006C007758CF828
:10093A00758A3012095BD007D006D005D004D003DF
:10094A00D002D001D000D0D0D082D083D0F0D0E075
:01095A00326A
:10095B00E50B90099C93F5801209C6E50B9009AC49
:10096B0093F5801209CF050BE50BC394084003E404
:03097B00F50B2257
:10089A000209B5E493A3F8E493A34003F68001F2B6
:1008AA0008DFF48029E493A3F85407240CC8C3335F
:1008BA00C4540F4420C8834004F456800146F6DF2E
:1008CA00E4800B01020408102040809009E0E47ED5
:1008DA00019360BCA3FF543F30E509541FFEE49323
:1008EA00A360010ECF54C025E060A840B8E493A3EA
:1008FA00FAE493A3F8E493A3C8C582C8CAC583CA15
:10090A00F0A3C8C582C8CAC583CADFE9DEE780BECC
:0109E3000013
:00000001FF
