:0300000002010BEF
:0C010B00787FE4F6D8FD7581200200DA50
:1000F300C0F9A4B0999282F880908883C6A1868EB5
:080103000102040810204080F5
:1000BC00D3EF9400EE940040147D787C00ED1D701D
:0D00CC00011CED4C70F7EF1F70E61E80E385
:0100D9002204
:1000030075B0F0E5B054F0F50C64F06004050B80B6
:1000130003E4F50BE50B64037063F50BD200E50C09
:100023002450601124E0601224F0601324707012D5
:10003300750801800D750802800875080380037533
:10004300080475B00FE5B0540FF50C24F9602424AF
:10005300FC601A24FE6010147023E50824FFF50ADF
:10006300E434FFF5098016E5082403800AE5082433
:10007300078004E508240BF50AE433F50975B00F8E
:10008300E5B0540FF50C300008B40F05C200AF0AF9
:03009300227FFFCA
:010096002247
:0C01170053A01F43A0A0000053A01F2213
:0C01230053A01F43A0E0000053A01F22C7
:0C012F0053A01F43A0C0000053A01F22DB
:08013B0043A0800053A01F2225
:1000970074032DF58274013CF583E493F580120116
:1000A7002FE4F58074F32FF58274003EF583E49313
:0500B700F580020123A9
:1000DA0075A01F120003AB07EBFD7C007E00120027
:0900EA00977F2C0E1200BC80EA85
:00000001FF
