:0300000002000EED
:0C000E00787FE4F6D8FD758120020055D3
:0B01BE00C0F9A4B0999282F88090FF75
:0D01B00008080A0A0A0A0A000000011000EF
:10009A0075B0FF438901758CF8758A30D2AFD2A941
:1000AA00D28C300107C2011201368F14E51424FEE6
:1000BA006007047006051580021515E4F514E515A8
:1000CA0075F06484F50DE51575F06484E5F075F056
:0F00DA000A84F50EE51575F00A8485F00F80C3D2
:03000B000200E907
:1000E900C0E0C0F0C083C082C0D075D000C000C0DD
:1000F90001C002C003C004C005C006C007758CF862
:10010900758A301201800511E511B40A05751100CF
:10011900D201D007D006D005D004D003D002D00137
:0D012900D000D0D0D082D083D0F0D0E03212
:10013600E5B0540FFF640F600405138003E4F51364
:10014600E513B40527E4F513D200EF24F9601A2469
:10015600FC601124FE6008147012751201800D7582
:10016600120280087512038003751204300008BF5E
:090176000F05C200AF12227FFF49
:01017F00225D
:1001800090E00074FFF0AF107401A807088002C36C
:1001900033D8FC90C000F074082510F8E69001BE3A
:1001A0009390E000F00510E510B40803E4F5102288
:10001A0002009AE493A3F8E493A34003F68001F262
:10002A0008DFF48029E493A3F85407240CC8C333E7
:10003A00C4540F4420C8834004F456800146F6DFB6
:10004A00E4800B01020408102040809001B0E47E95
:10005A00019360BCA3FF543F30E509541FFEE493AB
:10006A00A360010ECF54C025E060A840B8E493A372
:10007A00FAE493A3F8E493A3C8C582C8CAC583CA9D
:10008A00F0A3C8C582C8CAC583CADFE9DEE780BE55
:0101BD000041
:00000001FF
