:030000000202D227
:0C02D200787FE4F6D8FD75812002031946
:0B041A00C0F9A4B0999282F88090FF16
:1004040008080A0A0A0A0A0A0A0A01100002110064
:050414000002130000CE
:10023600438911758CF8758A30E4F58DF58BD2AF4C
:10024600D2A9D28C30004EC2001203E3D28E309176
:1002560003308FFAC28E308F0AC28F751527751636
:100266000F802DAF8D7513008F14E514751400F5EE
:1002760013AF8BEF4214E4AC13AD141201197B9645
:100286007A43798B783C12000E1201528E158F1626
:10029600E4F58DF58BAE15AF167C007D641201D3A7
:1002A6008F0DAE15AF167C007D641201D37E007FE4
:1002B6000ACFCDCFCECCCE1201D38F0EAE15AF1650
:0C02C6007C007D0A1201D38D0F02024A59
:03000B0002035E8F
:10035E00C0E0C0F0C083C082C0D075D000C000C065
:10036E0001C002C003C004C005C006C007758CF8EA
:10037E00758A301203B30512E5127002051164C8B6
:10038E0045117006D200F511F512D007D006D00532
:10039E00D004D003D002D001D000D0D0D082D083F0
:0503AE00D0F0D0E032A8
:1003B30090E00074FFF0AF107401A807088002C337
:1003C30033D8FC90C000F074082510F8E690041AA6
:1003D3009390E000F00510E510B40803E4F5102253
:1003E3007F08D29000000000000000000000C290CF
:1003F30000000000000000000000AE071FEE70E2E6
:0104030022D6
:10000E00EC4D6011E8497017ED33EC3304600DE4EC
:10001E00FCFFFEFD22E933E8330470F80201BE1244
:10002E00018958046009E4CC248150062850090245
:10003E0001C82840030201C5C0E0EB4A7044B980F4
:10004E0006D0E0FB0201B4EF4E701CBD8008EBFF42
:10005E00EAFEE9FD80EBE98DF0A4FEE5F00200F783
:10006E00E9CDF9EAFEEBFFEF89F0A4FCE5F0CE89CD
:10007E00F0A42EFFE435F0CD89F0A42DFEE435F08A
:10008E008067EF4E7005BD80D780C3EF8BF0A4ACB8
:10009E00F0EE8BF0A42CFCE435F0F8EF8AF0A42CF3
:1000AE00E5F038FCE433CB8DF0A42CFCE5F03BF806
:1000BE00EE8AF0A42CFCE5F038F8E433CF89F0A4F6
:1000CE002CFCE5F038CF3400CE89F0A42FFFE5F0FC
:1000DE003EFEE433C98DF0A42EFEE5F039CD8AF054
:1000EE00A42FFFE5F03EFEE43DFD33D0E0FB5007CC
:1000FE000BBB000F0201C8EC2CFCEF33FFEE33FEFE
:06010E00ED33FD0201A02B
:1001140075F020800E75F010800575F0087D007E66
:10012400007F003392D530D503120228EC334010FF
:10013400EF33FFEE33FEED33FDEC33FCD5F0ED226F
:0E014400E5F0247EA2D513CC92E7CDCEFF22AB
:10015200EDD2E7CD33EC3392D524814006E4FFFEA5
:10016200FDFC22FCE4CFCECDCC24E0501174FF8004
:10017200EDC3CC13CCCD13CDCE13CECF13CF0470A1
:07018200F030D5DE02022877
:10018900E9D2E7C933E833F892D5EDD2E7CD33ECBC
:0701990033FC5002B2D52235
:1001A000EC30E7100FBF000C0EBE00080DBD0004C0
:1001B0000BEB6014A2D5EB13FCED92E7FD2274FF6C
:1001C000FCFDFEFF22E480F8A2D574FF13FC7D80C5
:0301D000E480EFD9
:1002DE00020236E493A3F8E493A34003F68001F2FE
:1002EE0008DFF48029E493A3F85407240CC8C33321
:1002FE00C4540F4420C8834004F456800146F6DFF0
:10030E00E4800B0102040810204080900404E47E77
:10031E00019360BCA3FF543F30E509541FFEE493E4
:10032E00A360010ECF54C025E060A840B8E493A3AB
:10033E00FAE493A3F8E493A3C8C582C8CAC583CAD6
:10034E00F0A3C8C582C8CAC583CADFE9DEE780BE8E
:0104190000E2
:1001D300BC000BBE0029EF8DF084FFADF022E4CC10
:1001E300F875F008EF2FFFEE33FEEC33FCEE9DECD9
:1001F300984005FCEE9DFE0FD5F0E9E4CEFD22ED1F
:10020300F8F5F0EE8420D21CFEADF075F008EF2F68
:10021300FFED33FD4007985006D5F0F222C398FD59
:050223000FD5F0EA22F6
:0E022800C3E49FFFE49EFEE49DFDE49CFC22E7
:00000001FF
