:0300000002000EED
:0C000E00787FE4F6D8FD758108020055EB
:1000FE00C0F9A4B0999282F88090FF010204081012
:04010E00204080FF0E
:03000300010800F1
:0901230075A0FF000075A01F2269
:09012C0075A0DF000075A01F2280
:10011200438901758CF8758A30D2AFD2A9D28C800E
:01012200FEDE
:03000B0002009A56
:10009A00C0E0C0F0C083C082C0D075D000C000C02C
:1000AA0001C002C003C004C005C006C007758CF8B1
:1000BA00758A301200DBD007D006D005D004D003F1
:1000CA00D002D001D000D0D0D082D083D0F0D0E0FE
:0100DA0032F3
:1000DB00E50890010993F58012012CE5089000FFCB
:1000EB0093F5801201230508E508C394084003E447
:0300FB00F50822E3
:10001A00020112E493A3F8E493A34003F68001F2E9
:10002A0008DFF48029E493A3F85407240CC8C333E7
:10003A00C4540F4420C8834004F456800146F6DFB6
:10004A00E4800B0102040810204080900003E47E43
:10005A00019360BCA3FF543F30E509541FFEE493AB
:10006A00A360010ECF54C025E060A840B8E493A372
:10007A00FAE493A3F8E493A3C8C582C8CAC583CA9D
:10008A00F0A3C8C582C8CAC583CADFE9DEE780BE55
:0100060000F9
:00000001FF
