:0300000002009665
:0C009600787FE4F6D8FD75810702006B4E
:10006B007580FF120047EFF460F912008912004708
:0E007B00EFF460EF120003E5B0F460E780F9E7
:100047007FFFE5B0540F24F9601724FC600F24FEEE
:10005700600714700E7F01800A7F0280067F03808D
:03006700027F0411
:01006A002273
:10000300EF24FE601414601E14602924037034E589
:10001300A0541F4480F5A08017E5A0541F4480F529
:10002300A0158053A01FE5A0541F4480F5A00580B0
:100033000580800CE5A0541F4480F5A01580158031
:0400430053A01F2285
:0C008900E4FFE4FE0EBEF8FC0FBF32F6F0
:010095002248
:00000001FF
