:03000000020155A5
:0C015500787FE4F6D8FD7581100200F9F7
:09016100000103070F1F3F7FFF9F
:10012E00E4FDE4FCECC39FEE6480F8748098500309
:07013E000C80F10DBDDCEBAC
:010145002297
:0F014600C2A5C2A6D2A70000C2A5C2A6C2A72208
:1000F90078087C007D007BFF7A0179617E007F09A9
:100109001200D3C2A5C2A6C2A7E4FBEB75F009840D
:10011900740825F0F8E6F5801201467F647E001226
:05012900012E0B80E631
:10000300E709F608DFFA8046E709F208DFFA803EDF
:1000130088828C83E709F0A3DFFA8032E309F608CC
:10002300DFFA8078E309F208DFFA807088828C8334
:10003300E309F0A3DFFA806489828A83E0A3F608E8
:10004300DFFA805889828A83E0A3F208DFFA804CC2
:1000530080D280FA80C680D4806980F28033801099
:1000630080A680EA809A80A880DA80E280CA803302
:1000730089828A83ECFAE493A3C8C582C8CCC5837A
:10008300CCF0A3C8C582C8CCC583CCDFE9DEE7804A
:100093000D89828A83E493A3F608DFF9ECFAA9F0C9
:1000A300EDFB2289828A83ECFAE0A3C8C582C8CC1F
:1000B300C583CCF0A3C8C582C8CCC583CCDFEADE38
:1000C300E880DB89828A83E493A3F208DFF980CC9A
:1000D30088F0EF60010E4E60C388F0ED2402B40493
:1000E3000050B9F582EB2402B4040050AF2323453A
:0600F3008223900053730C
:00000001FF
