:0300000002088E65
:0C088E00787FE4F6D8FD7581200208D5C3
:0609EB00040940001000A9
:07099A001209BF7F2C7E0152
:1009A100D3EF9400EE940040147D787C00ED1D702F
:0D09B100011CED4C70F7EF1F70E61E80E397
:0109BE002216
:1008000075B0F0E5B054F0F50F64F06004050E80AB
:1008100003E4F50EE50E6403705DF50ED200E50FFE
:100820002450601124E0601224F0601324707012D0
:10083000750801800D75080280087508038003752E
:10084000080475B00FE5B0540FF50F24F9602224A9
:10085000FC601624FE600A14701DE50814F50D8076
:1008600016E5082403F50D800EE5082407F50D8034
:1008700006E508240BF50D75B00FE5B0540FF50F24
:0D088000300008B40F05C200AF0D227FFF4D
:01088D002248
:0C09BF0053A01F43A0A0000053A01F2263
:0C09CB0053A01F43A0E0000053A01F2217
:0C09D70053A01F43A0C0000053A01F222B
:0809E30043A0800053A01F2275
:10091A007B027A00D2B0D2B1D2B2D2B353A01F2096
:10092A00B00E7F057E001209A120B0047A007B0177
:10093A0020B10E7F057E001209A120B1047A007B46
:10094A000220B20E7F057E001209A120B2047A00AD
:10095A007B0320B30E7F057E001209A120B3047A1F
:10096A00007B04900000C3E5829BE5839A501B85B7
:10097A00098012099A850B8012099A850A80120940
:10098A009A850C8012099AA380DCE4FAFB020929F1
:10089A0002091AE493A3F8E493A34003F68001F251
:1008AA0008DFF48029E493A3F85407240CC8C3335F
:1008BA00C4540F4420C8834004F456800146F6DF2E
:1008CA00E4800B01020408102040809009EBE47ECA
:1008DA00019360BCA3FF543F30E509541FFEE49323
:1008EA00A360010ECF54C025E060A840B8E493A3EA
:1008FA00FAE493A3F8E493A3C8C582C8CAC583CA15
:10090A00F0A3C8C582C8CAC583CADFE9DEE780BECC
:0109F1000005
:00000001FF
