:03000000020109F1
:0C010900787FE4F6D8FD75812002009C90
:1000F000C0F9A4B0999282F880908883C6A1868EB8
:090100000102040810204080FFF8
:0901150075A0FF000075A01F2277
:09011E0075A0DF000075A01F228E
:10009C007FFF438901758CF8758A30D2AFD2A9D213
:1000AC008C300105C20112000E1200D77FFF80F1C7
:03000B000200BC34
:1000BC00C0E0C0D0758CF8758A300509E509B40A22
:0B00CC0005750900D201D0D0D0E03251
:10000E0075B0F0E5B054F0F50C64F06004050B80AB
:10001E0003E4F50BE50B6403705DF50BD200E50C04
:10002E002450601124E0601224F0601324707012CA
:10003E00750801800D750802800875080380037528
:10004E00080475B00FE5B0540FF50C24F9602224A6
:10005E00FC601624FE600A14701DE50814F50A8073
:10006E0016E5082403F50A800EE5082407F50A8034
:10007E0006E508240BF50A75B00FE5B0540FF50C24
:0D008E00300008B40F05C200AF0A227FFF4A
:01009B002242
:1000D700EFF46014900100E493F58012011EEF9095
:0900E70000F093F58012011522CE
:00000001FF
