:0300000002000EED
:0C000E00787FE4F6D8FD758111020055E2
:0B025900C0F9A4B0999282F88090FFD9
:0D02330008080A0A0A0A0A0000000110006B
:1000DB00438901758CF8758A30D2AFD2A9D28CE4E2
:1000EB00FF12017B8F110511AD11E4FF1201DEE54B
:1000FB001175F06484F50DE51175F06484E5F07508
:10010B00F00A84F50EE51175F00A8485F00F80FE78
:03000B0002009A56
:10009A00C0E0C0F0C083C082C0D075D000C000C02C
:1000AA0001C002C003C004C005C006C007758CF8B1
:1000BA00758A3012011BD007D006D005D004D003B0
:1000CA00D002D001D000D0D0D082D083D0F0D0E0FE
:0100DA0032F3
:10011B0090E00074FFF0AF107401A807088002C3D1
:10012B0033D8FC90C000F074082510F8E690025903
:10013B009390E000F00510E510B40803E4F51022ED
:04024100D2A07F05C3
:0802450000AE071FEE70F92264
:0F022400D2A1120241C2A17F05120245C2A0223F
:0C024D00C2A1120241D2A17F05020245AD
:02014B00AD07FE
:10014D00C2AFE4FCC2A07F05120245ED30E704D238
:10015D00A18002C2A17F05120245D2A0ED25E0FDCE
:0D016D007F051202450CBC08DBD2AFC2A01A
:01017A002262
:0B01C10012014B1201CCAF0312014BE6
:1001CC00120241A2A1E433FDC2A07F05120245AF89
:0101DC00051D
:0101DD0022FF
:1001A000C2AFE4FC120241ED25E0FD30A10343059E
:1001B00001C2A07F051202450CBC08E8D2AFAF0512
:0101C000221C
:1001FA00C2A0EF24FF92A17F05120245120241C25A
:08020A00A0D2A17F050202450C
:10021200AD071FED600BE4FEEEC3947050F20E804A
:01022200F7E4
:0102230022B8
:1001DE00AB05AA071202247FA012014B1201CCAF6D
:0C01EE00021201C112024D7F0A0202122F
:02017B00AB07D0
:10017D001202247FA01201C11202247FA112014B91
:10018D001201CC1201A0AD07E4FF1201FA12024DCB
:02019D00AF05AC
:01019F00223D
:10001A000200DBE493A3F8E493A34003F68001F221
:10002A0008DFF48029E493A3F85407240CC8C333E7
:10003A00C4540F4420C8834004F456800146F6DFB6
:10004A00E4800B0102040810204080900233E47E11
:10005A00019360BCA3FF543F30E509541FFEE493AB
:10006A00A360010ECF54C025E060A840B8E493A372
:10007A00FAE493A3F8E493A3C8C582C8CAC583CA9D
:10008A00F0A3C8C582C8CAC583CADFE9DEE780BE55
:0102400000BD
:00000001FF
