:030000000208678C
:0C086700787FE4F6D8FD758107020835A3
:100800007580FF1208737F2C7E01120817E4F580B3
:070810001208737F2C7E012A
:10081700D3EF9400EE940040147D6E7C00ED1D70C4
:0D082700011CED4C70F7EF1F70E61E80E322
:0108340022A1
:0A087300D2A7C2A6C2A500C2A722A8
:10083500C2A7C2A6C2A57580FF120810E4FBFA7F05
:10084500FEAE03A806EF08800123D8FD12080E0BA3
:10085500BB00010AEB64084A70E5120800120800A3
:0208650080D43D
:00000001FF
